:100000000C9434000C943E000C943E000C943E0082
:100010000C943E000C943E000C943E000C943E0068
:100020000C943E000C943E000C943E000C943E0058
:100030000C943E000C943E000C943E000C943E0048
:100040000C943E000C943E000C943E000C943E0038
:100050000C943E000C943E000C943E000C943E0028
:100060000C943E000C943E0011241FBECFEFD8E04C
:10007000DEBFCDBF0E9440000C9459000C940000DC
:1000800080E48AB98FEF8BB95E982FEF83ED90E310
:10009000215080409040E1F700C000005E9A2FEFB1
:1000A00083ED90E3215080409040E1F700C00000D4
:0600B000EBCFF894FFCF36
:00000001FF
