:100000000C9434000C943E000C943E000C943E0082
:100010000C943E000C943E000C943E000C943E0068
:100020000C943E000C943E000C943E000C943E0058
:100030000C943E000C943E000C943E000C943E0048
:100040000C943E000C943E000C943E000C943E0038
:100050000C943E000C943E000C943E000C943E0028
:100060000C943E000C943E0011241FBECFEFD8E04C
:10007000DEBFCDBF0E9440000C9468000C940000CD
:1000800080E284B982E287B980E292E015B888B94B
:100090002FEF37EA41E6215030404040E1F700C001
:1000A000000085B918B82FEF37EA41E621503040FB
:1000B0004040E1F700C0000015B898B92FEF37EACB
:1000C00041E6215030404040E1F700C00000DECF63
:0400D000F894FFCFD2
:00000001FF
