:100000000C9434000C943E000C943E000C943E0082
:100010000C943E000C943E000C943E000C943E0068
:100020000C943E000C943E000C943E000C943E0058
:100030000C943E000C943E000C943E000C943E0048
:100040000C943E000C943E000C943E000C943E0038
:100050000C943E000C943E000C943E000C943E0028
:100060000C943E000C943E0011241FBECFEFD8E04C
:10007000DEBFCDBF0E9440000C9454000C940000E1
:10008000559A1BB818B889B1803159F018F48430EA
:1000900049F0F8CF843319F0843811F0F3CF8BB1E5
:0C00A0008BB18BB18BB1EECFF894FFCF89
:00000001FF
