:100000000C9434000C9448000C9446000C94460068
:100010000C9446000C9446000C9446000C94460048
:100020000C9446000C9446000C9446000C94460038
:100030000C9446000C9446000C9446000C94460028
:100040000C9446000C9446000C9446000C94460018
:100050000C9446000C9446000C9446000C94460008
:100060000C9446000C94460011241FBECFEFD8E03C
:10007000DEBFCDBF21E0A0E0B1E001C01D92A13004
:10008000B207E1F70E9474000C948E000C940000FB
:100090001F920F920FB60F9211242F933F938F93BD
:1000A0009F9345981092000191E080910001843166
:1000B00090F488B1892788B92FEF33EC89E021507B
:1000C00030408040E1F700C00000809100018F5F68
:1000D00080930001EACF9F918F913F912F910F90D4
:1000E0000FBE0F901F9018951AB817B887B181628C
:1000F00087B980916900816080936900E89A78945B
:10010000499BFECF459A2FEF83E294EF2150804028
:100110009040E1F700C000004598F2CFF894FFCF7F
:00000001FF
