:100000000C9434000C9446000C9446000C9446006A
:100010000C9446000C9448000C9446000C94460046
:100020000C9446000C9446000C9446000C94460038
:100030000C9446000C9446000C9446000C94460028
:100040000C9446000C9446000C9446000C94460018
:100050000C9446000C9446000C9446000C94460008
:100060000C9446000C94460011241FBECFEFD8E03C
:10007000DEBFCDBF21E0A0E0B1E001C01D92A23003
:10008000B207E1F70E9471000C948A000C94000002
:100090001F920F920FB60F9211248F939F9349993D
:1000A0000AC080910001909101014A96909301014C
:1000B0008093000103C08091000187BD8091000101
:1000C000909101018F3F910529F020F010920101DC
:1000D000109200019F918F910F900FBE0F901F9073
:1000E00018951AB8569A599A84B5806884BD84B513
:1000F000836084BD85B5826085BD17BC8091680032
:1001000084608093680080916D00826080936D00B0
:080110007894FFCFF894FFCFB3
:00000001FF
