:100000000C9434000C9452000C9440000C943E006C
:100010000C943E000C943E000C943E000C943E0068
:100020000C943E000C943E000C943E000C943E0058
:100030000C943E000C943E000C943E000C943E0048
:100040000C943E000C943E000C943E000C943E0038
:100050000C943E000C943E000C943E000C943E0028
:100060000C943E000C943E0011241FBECFEFD8E04C
:10007000DEBFCDBF0E946D000C948D000C9400007B
:100080001F920F920FB60F9211248F939F939DB3DF
:1000900081E089278DBB9F918F910F900FBE0F90AC
:1000A0001F9018951F920F920FB60F9211242F9345
:1000B0008F939F935C9A2FEF83ED90E321508040C4
:1000C0009040E1F700C000005C989F918F912F91C4
:1000D0000F900FBE0F901F9018958AB180638AB958
:1000E0008BB18C608BB9809169008C6080936900C2
:1000F00080916900836080936900E99A789490E226
:100100008BB189278BB92FEF39E688E12150304038
:0E0110008040E1F700C00000F3CFF894FFCF6D
:00000001FF
