:100000000C9434000C944B000C9440000C943E0073
:100010000C943E000C943E000C943E000C943E0068
:100020000C943E000C943E000C943E000C943E0058
:100030000C943E000C943E000C943E000C943E0048
:100040000C943E000C943E000C943E000C943E0038
:100050000C943E000C943E000C943E000C943E0028
:100060000C943E000C943E0011241FBECFEFD8E04C
:10007000DEBFCDBF0E9456000C946A000C940000B5
:100080001F920F920FB60F921124289A0F900FBE55
:100090000F901F9018951F920F920FB60F92112478
:1000A00028980F900FBE0F901F9018951AB88BB11B
:1000B0008C608BB9209A809169008360809369007D
:1000C000809169008C60809369008DB383608DBBE3
:0800D0007894FFCFF894FFCFF4
:00000001FF
