:100000000C9434000C943E000C943E000C943E0082
:100010000C943E000C943E000C943E000C943E0068
:100020000C943E000C943E000C943E000C943E0058
:100030000C943E000C943E000C943E000C943E0048
:100040000C943E000C943E000C943E000C943E0038
:100050000C943E000C943E000C943E000C943E0028
:100060000C943E000C943E0011241FBECFEFD8E04C
:10007000DEBFCDBF0E9440000C947B000C940000BA
:100080008AB18B608AB920988AB18F7C8AB98BB18A
:10009000847F8BB9289880E090E04D9B04C0589BEA
:1000A0004E96589A04C0589B02C04E975898189B79
:1000B00004C0599BC296599A04C0599B02C0C2976A
:1000C00059984C9B06C05B9902C08A5B9F4F5B9A14
:1000D00005C05B9B03C0865491095B988B359105E5
:1000E000E4F2589B03C058984E97F8CF599BF6CF2F
:0A00F0005998C297F3CFF894FFCFA0
:00000001FF
