:100000000C9434000C943E000C943E000C943E0082
:100010000C943E000C943E000C943E000C943E0068
:100020000C943E000C943E000C943E000C943E0058
:100030000C943E000C943E000C943E000C943E0048
:100040000C943E000C943E000C943E000C943E0038
:100050000C943E000C943E000C943E000C943E0028
:100060000C943E000C943E0011241FBECFEFD8E04C
:10007000DEBFCDBF0E9440000C94B3000C94000082
:100080008AB187608AB98BB1806E8BB98BB1887F5A
:100090008BB940E050E020E030E080E090E0AEE15D
:1000A000B2E3C6E4E9B169B1607479B1E5FD0BC0B2
:1000B000DFEFE7EAF1E6D150E040F040E1F700C0C1
:1000C0000000D1E08D2761110BC0EFEFF7EA61E688
:1000D000E150F0406040E1F700C00000D1E02D2782
:1000E00077FD0BC0EFEFF7EA61E6E150F0406040CA
:1000F000E1F700C0000071E04727A89FB001A99F69
:10010000700D1124B29FF001B39FF00D11246E0FFA
:100110007F1FC49FF001C59FF00D11246E0F7F1F3C
:100120006B35710534F0892B51F0693771053CF45A
:1001300008C0892B31F0589A81E090E005C020E09A
:1001400030E0589880E090E02115310511F0599A7F
:1001500001C059984115510521F05A9A41E050E0EB
:0A016000A1CF5A989FCFF894FFCF6B
:00000001FF
