:100000000C9434000C943E000C943E000C943E0082
:100010000C943E000C943E000C943E000C943E0068
:100020000C943E000C943E000C943E000C943E0058
:100030000C943E000C943E000C943E000C943E0048
:100040000C943E000C943E000C943E000C943E0038
:100050000C943E000C943E000C943E000C943E0028
:100060000C943E000C943E0011241FBECFEFD8E04C
:10007000DEBFCDBF0E9440000C94F8000C9400003D
:100080001AB814B88FE387B98BB183608BB918B8ED
:100090009FEF489914C018B82FEF35EA8EE0215031
:1000A00030408040E1F700C0000098B92FEF35EAFA
:1000B0008EE0215030408040E1F700C000004999B7
:1000C0002CC018B82FEF35EA8EE021503040804028
:1000D000E1F700C0000088B1856088B92FEF35EAEC
:1000E0008EE0215030408040E1F700C0000018B899
:1000F0002FEF35EA8EE0215030408040E1F700C01C
:10010000000088B18A6088B92FEF35EA8EE021506F
:1001100030408040E1F700C00000189932C018B8A4
:100120002FEF35EA8EE0215030408040E1F700C0EB
:100130000000409A2FEF35EA8EE021503040804099
:10014000E1F700C00000419A2FEF35EA8EE0215020
:1001500030408040E1F700C00000429A2FEF35EABE
:100160008EE0215030408040E1F700C00000439A0B
:100170002FEF35EA8EE0215030408040E1F700C09B
:100180000000199986CF88B18F6088B92FEF35EAC2
:100190008EE0215030408040E1F700C000004098E0
:1001A0002FEF35EA8EE0215030408040E1F700C06B
:1001B000000041982FEF35EA8EE02150304080401A
:1001C000E1F700C0000042982FEF35EA8EE02150A1
:1001D00030408040E1F700C0000043982FEF35EA3F
:1001E0008EE0215030408040E1F700C0000051CF48
:0401F000F894FFCFB1
:00000001FF
