:100000000C9434000C943E000C943E000C943E0082
:100010000C943E000C943E000C943E000C943E0068
:100020000C943E000C943E000C943E000C943E0058
:100030000C943E000C943E000C943E000C943E0048
:100040000C943E000C943E000C943E000C943E0038
:100050000C943E000C943E000C943E000C943E0028
:100060000C943E000C943E0011241FBECFEFD8E04C
:10007000DEBFCDBF0E9440000C9464000C940000D1
:10008000509A14B815B81BB84A9B0BC04C9B09C0BA
:100090004D9B07C0589AF8CF489B0BC04D9909C09B
:1000A000589A4A99F9CF05C04D990BC04C9B09C08D
:1000B000589A4A9BF9CF05C04D99E5CF4899E3CFAF
:0C00C000589A4A99F9CFDFCFF894FFCF8F
:00000001FF
