:100000000C9434000C943E000C943E000C945C0064
:100010000C943E000C9440000C943E000C943E0066
:100020000C943E000C943E000C943E000C943E0058
:100030000C943E000C943E000C943E000C943E0048
:100040000C943E000C943E000C943E000C943E0038
:100050000C943E000C943E000C943E000C943E0028
:100060000C943E000C943E0011241FBECFEFD8E04C
:10007000DEBFCDBF0E9478000C949B000C94000062
:100080001F920F920FB60F9211242F938F939F936D
:1000900045982D9A2FEF85EA9EE0215080409040B0
:1000A000E1F700C000002D989F918F912F910F9044
:1000B0000FBE0F901F9018951F920F920FB60F92C0
:1000C00011242F938F939F9345982D9A2FEF8BE4B4
:1000D0009DE1215080409040E1F700C000002D9844
:1000E0009F918F912F910F900FBE0F901F90189599
:1000F0001AB88FEF87B914B8259A80916800856087
:100100008093680080916B00806880936B00809181
:100110006D00826080936D00789490E288B18927A9
:1001200088B92FEF33E284EF215030408040E1F76F
:0A01300000C00000F3CFF894FFCFE9
:00000001FF
